:100000000C9462000C948A000C948A000C948A0070
:100010000C948A000C948A000C948A000C948A0038
:100020000C948A000C948A000C948A000C94CF02E1
:100030000C948A000C948A000C948A000C948A0018
:100040000C9485020C948A000C948A000C948A000B
:100050000C948A000C948A000C948A000C948A00F8
:100060000C948A000C948A000000000024002700F1
:100070002A0000000000250028002B0000000000DE
:1000800023002600290004040404040404040202DA
:100090000202020203030303030301020408102007
:1000A0004080010204081020010204081020000012
:1000B0000008000201000003040700000000000027
:1000C0000000C10411241FBECFEFD8E0DEBFCDBFBA
:1000D00021E0A8E0B1E001C01D92A234B207E1F72F
:1000E00011E0A0E0B1E0E6E9FBE002C005900D926E
:1000F000A830B107D9F710E0C2E6D0E004C02197DC
:10010000FE010E940405C136D107C9F70E94900381
:100110000C94C9050C940000833081F028F48130E0
:1001200099F08230A1F008958730A9F08830B9F0B5
:100130008430D1F4809180008F7D03C08091800055
:100140008F7780938000089584B58F7702C084B53F
:100150008F7D84BD08958091B0008F7703C080911A
:10016000B0008F7D8093B0000895CF93DF93282F48
:1001700030E0F901E255FF4F8491F901E656FF4F57
:10018000D491F901EA57FF4FC491CC2391F081112A
:100190000E948C00EC2FF0E0EE0FFF1FE458FF4FA1
:1001A000A591B491EC91ED2381E090E021F480E001
:1001B00002C080E090E0DF91CF9108951F93CF932C
:1001C000DF93282F30E0F901E255FF4F8491F901C8
:1001D000E656FF4FD491F901EA57FF4FC491CC2363
:1001E000C9F0162F81110E948C00EC2FF0E0EE0F69
:1001F000FF1FEE58FF4FA591B4918FB7F8941111DE
:1002000005C09C91ED2FE095E92302C0EC91ED2B08
:10021000EC938FBFDF91CF911F910895CF93DF9320
:1002200090E0FC01E656FF4F2491FC01EA57FF4F96
:100230008491882361F190E0880F991FFC01E859AF
:10024000FF4FC591D491FC01EE58FF4FA591B49199
:10025000611109C09FB7F894888120958223888313
:10026000EC912E230BC0623061F49FB7F894388173
:10027000822F809583238883EC912E2B2C939FBF14
:1002800006C08FB7F894E8812E2B28838FBFDF91AB
:10029000CF9108953FB7F89480913E0190913F012E
:1002A000A0914001B091410126B5A89B05C02F3F08
:1002B00019F00196A11DB11D3FBFBA2FA92F982F8C
:1002C0008827820F911DA11DB11DBC01CD0142E007
:1002D000660F771F881F991F4A95D1F708958F924F
:1002E0009F92AF92BF92CF92DF92EF92FF920E94C5
:1002F0004A014B015C018FE0C82ED12CE12CF12C7E
:100300000E944A01DC01CB0188199909AA09BB099D
:10031000883E9340A105B10558F021E0C21AD108EA
:10032000E108F10888EE880E83E0981EA11CB11C3C
:10033000C114D104E104F10419F7FF90EF90DF90AC
:10034000CF90BF90AF909F908F900895CF92DF9203
:10035000EF92FF92CF93DF93EC01603282E0780757
:100360000CF03DC077FD06C0653B71052CF064EBD9
:1003700070E002C060E070E0898128E830E0690147
:10038000C81AD10887FDD394CC0CDD1CCC0CDD1C25
:100390000D2C000CEE08FF088A8128E532E0281BAE
:1003A000310987FD3395220F331F220F331FC901F7
:1003B000330FAA0BBB0B9C01AD012C193D094E0953
:1003C0005F09DB010E94900524EB30E040E050E043
:1003D0000E946605C20ED31EE41EF51EB60188817A
:1003E0008C3080F5998148E850E0491B510997FD10
:1003F0005395440F551F440F551F6417750784F01C
:100400009A8128E532E0291B310997FD3395220FA7
:10041000331F220F331FAB01261737070CF4A90136
:1004200042505109440F551F2FB7F89490E0FC013A
:10043000EE0FFF1F8E0F9F1FFC01E65FFE4F5283E2
:1004400041832FBFDF91CF91FF90EF90DF90CF904E
:1004500008951F93CF93DF93EC01162F88818C3082
:1004600008F04EC061E0812F0E940E018881E82FC4
:10047000F0E09F01220F331FE20FF31FE65FFE4FF4
:100480001F739081907C192B108319821A826CE063
:100490000E94F8049CE0899FB001112440E050E0E4
:1004A0009A01260F371FF901EE0FFF1F2E0F3F1F76
:1004B000F901E65FFE4F908196FD16C04F5F5F4FDA
:1004C0004C30510569F781110FC01092800082E015
:1004D000809381001092850010928400B19A8091DF
:1004E0006F00826080936F00E881F0E0CF01880F99
:1004F000991FE80FF91FE65FFE4F808180648083BB
:100500008881DF91CF911F9108951F920F920FB6AE
:100510000F9211242F933F938F939F93AF93BF9389
:1005200080913A0190913B01A0913C01B0913D0135
:100530003091390123E0230F2D3720F40196A11DBE
:10054000B11D05C026E8230F0296A11DB11D209301
:10055000390180933A0190933B01A0933C01B09301
:100560003D0180913E0190913F01A0914001B091E9
:1005700041010196A11DB11D80933E0190933F0161
:10058000A0934001B0934101BF91AF919F918F9192
:100590003F912F910F900FBE0F901F9018951F92B3
:1005A0000F920FB60F9211242F933F934F935F93A7
:1005B0006F937F938F939F93AF93BF93EF93FF932B
:1005C0008091090187FF05C0109285001092840078
:1005D0001BC020910901022E000C330B80910801F1
:1005E00090E02817390784F480910901082E000C47
:1005F000990BFC01EE0FFF1F8E0F9F1FFC01E65FA2
:10060000FE4F808186FD15C0809109018F5F809328
:10061000090120910901022E000C330B8091080181
:1006200090E028173907C4F4809109018C3064F1F7
:1006300013C080910901082E000C990BFC01EE0FEC
:10064000FF1F8E0F9F1FFC01E65FFE4F808160E061
:100650008F730E94DE00D8CF809184009091850036
:10066000049680349C4918F480E49CE905C080918C
:10067000840090918500049690938900809388006F
:100680008FEF809309013BC0209184003091850059
:1006900080910901082E000C990BFC01EE0FFF1F41
:1006A0008E0F9F1FFC01E65FFE4F81819281820FBA
:1006B000931F909389008093880080910901082EF0
:1006C000000C990BFC01EE0FFF1F8E0F9F1FFC010A
:1006D000E65FFE4F808186FF12C080910901082EDF
:1006E000000C990BFC01EE0FFF1F8E0F9F1FFC01EA
:1006F000E65FFE4F808161E08F730E94DE00FF9114
:10070000EF91BF91AF919F918F917F916F915F9189
:100710004F913F912F910F900FBE0F901F90189502
:10072000789484B5826084BD84B5816084BD85B5CC
:10073000826085BD85B5816085BD80916E008160D8
:1007400080936E001092810080918100826080937E
:100750008100809181008160809381008091800080
:100760008160809380008091B10084608093B100AB
:100770008091B00081608093B00080917A008460A5
:1007800080937A0080917A00826080937A008091D1
:100790007A00816080937A0080917A0080688093EB
:1007A0007A001092C10063E070E082E391E00E9461
:1007B000290269E070E08EE291E00E9429026091D6
:1007C00002017091030182E391E00E94A601609111
:1007D0000001709101018EE291E00E94A60160E0AB
:1007E0008EE00E940E0160E08FE00E940E0160E04A
:1007F00080E10E940E0161E08DE00E940E0184EB19
:10080000882E912CA12CB12C90E0E92E90E0F92EAD
:1008100026E4C22ED12C8EE00E94B50001E0892B87
:1008200009F000E0009338018FE00E94B500D1E0AC
:10083000892B09F0D0E0D093370180E10E94B50008
:10084000C1E0892B09F0C0E0C093360181E10E942C
:10085000B50011E0892B09F010E010933501002359
:1008600049F0809102019091030101969093030158
:1008700080930201DD2349F08091020190910301F0
:1008800001979093030180930201CC2321F0D09231
:100890000301C0920201C0910201D0910301C13A4B
:1008A000D10514F0C0EAD0E0CC3E8FEFD80714F4A5
:1008B000CCEEDFEFD0930301C0930201BE0182E3CF
:1008C00091E00E94A6011123E1F1C63F8FEFD80706
:1008D0004CF08E01C739D10514F006E910E0065F2F
:1008E0001F4F02C000E010E061E08DE00E94DE00DA
:1008F000B80182E391E00E94A6010E946F013801D5
:1009000084E1681A7108B30182E391E00E94A601B4
:100910000E946F01B80182E391E00E94A6010E944B
:100920006F01B30182E391E00E94A6010E946F0172
:1009300060E08DE00E94DE00BE0182E391E00E9453
:10094000A601809131018F5F80933101893780F05A
:100950000E945805A50194010E946605709301014B
:10096000609300018EE291E00E94A6011092310195
:100970000E946F01E114F10409F44DCF0E940000C0
:100980004ACF809108018C30A0F491E0980F9093A9
:1009900008018093320190E0FC01EE0FFF1F8E0FE3
:1009A0009F1FFC01E65FFE4F88EB9BE092838183F3
:1009B00003C08FEF80933201809108018C30A0F446
:1009C00091E0980F9093080180932E0190E0FC0134
:1009D000EE0FFF1F8E0F9F1FFC01E65FFE4F88EB9F
:1009E0009BE09283818308958FEF80932E01089579
:1009F000991B79E004C0991F961708F0961B881F71
:100A00007A95C9F780950895EE0FFF1F0590F49130
:100A1000E02D09948F929F92AF92BF92CF92DF9276
:100A2000EF92FF92CF93DF93EC01688179818A8105
:100A30009B81611571058105910521F464E279EDD1
:100A40008BE597E02DE133EF41E050E00E94660531
:100A500049015A019B01AC01A7EAB1E40E94850556
:100A60006B017C01ACEEB4EFA50194010E949305EB
:100A7000DC01CB018C0D9D1DAE1DBF1DB7FF03C05A
:100A80000197A109B04888839983AA83BB83BC01DD
:100A9000CD019F77DF91CF91FF90EF90DF90CF90C6
:100AA000BF90AF909F908F9008950E940A0508957F
:100AB00084E091E00E940A05089560930401709318
:100AC000050180930601909307010895052E97FB79
:100AD0001EF400940E947D0557FD07D00E949805E2
:100AE00007FC03D04EF40C947D055095409530954D
:100AF00021953F4F4F4F5F4F08959095809570958A
:100B000061957F4F8F4F9F4F08950E94BA05A59F13
:100B1000900DB49F900DA49F800D911D11240895F8
:100B2000B7FF0C9485050E948505821B930B0895E1
:100B3000A1E21A2EAA1BBB1BFD010DC0AA1FBB1FE1
:100B4000EE1FFF1FA217B307E407F50720F0A21B53
:100B5000B30BE40BF50B661F771F881F991F1A94C0
:100B600069F760957095809590959B01AC01BD01EA
:100B7000CF010895A29FB001B39FC001A39F700D44
:100B8000811D1124911DB29F700D811D1124911D95
:060B90000895F894FFCF68
:080B96004600460001000000CA
:00000001FF
